:020000040000FA
:0400000001EF3AF0E2
:10740200000112EF3EF082968298949694981200B0
:1074120001C0A9FFA69EA680A8CF03F0046A03C0FC
:1074220001F004C002F0120082980D0EE82EFED781
:1074320000F082860D0EE82EFED700F08296120032
:1074420082880D0EE82EFED700F082860D0EE82E01
:10745200FED700F082961200948882860D0EE82EE6
:10746200FED700F0000E82B8010E016E829694984B
:107472000150120082880D0EE82EFED700F082869F
:107482000D0EE82EFED700F082980D0EE82EFED7E4
:1074920000F082961200A6B2FED701C0A9FF03C077
:1074A200A8FFA69EA684F29E550EA76EAA0EA76EF0
:1074B200A682F28EA694A692120082980D0EE82E53
:1074C200FED700F082860D0EE82EFED700F08288ED
:1074D2000D0EE82EFED700F082960D0EE82EFED796
:1074E20000F012009488000E036E82860D0EE82EC4
:1074F200FED700F082A803D0016A012A01D0016AF6
:10750200025002240110026E82960D0EE82EFED762
:1075120000F0032A070E0364E8D794980250120081
:10752200016E000E026E01AE02D0828801D08298F6
:1075320001500124016E0D0EE82EFED700F0828666
:107542000D0EE82EFED700F082960D0EE82EFED725
:1075520000F0022A070E0264E6D71200000E066E41
:1075620002AE06D0016C021ED8B0022A010E066ECF
:1075720004AE04D0036C041ED8B0042A03500410D5
:10758200D8B418D0010E056E04D0D8900336043654
:10759200052A04AEFAD70350015C04500258D8A061
:1075A20004D00350015E0450025AD89004320332D0
:1075B200052EF1D70650D8B404D0016C021ED8B003
:1075C200022A01C001F002C002F01200000E066E93
:1075D20004AE06D0036C041ED8B0042A010E066E57
:1075E20002AE06D0016C021ED8B0022A010E061AA3
:1075F200000E086E000E076E03500410D8B41CD0A3
:10760200010E056E04D0D89003360436052A04AE66
:10761200FAD7D890073608360350015C0450025856
:10762200D8A005D00350015E0450025A0780D890BA
:1076320004320332052EEDD70650D8B404D0076CBD
:10764200081ED8B0082A07C001F008C002F01200D4
:107652003BEC3AF0900E91EC3AF02DEC3AF0000946
:10766200D8A4FFD7000E91EC3AF02DEC3AF00009C5
:10767200D8A4FFD73BEC3AF0910E91EC3AF02DEC06
:107682003AF00009D8A4FFD773EC3AF00A6E15EC71
:107692003AF073EC3AF00B6E21EC3AF05EEC3AF011
:1076A2000BC006F0050E076ED8900632072EFCD7E7
:1076B2000A50086E096AD89008360936D8900836FA
:1076C2000936D8900836093606500824046E000E92
:1076D2000920056E12002A342B34316E3150D8A4A1
:1076E20009D0000E286E000E296E000E2A6E000EC2
:1076F2002B6E120028C02CF029C02DF02AC02EF0CB
:107702002BC02FF0200E05D0D8902F322E322D32E2
:107712002C32E82EF9D72C50306E2A8EFF0E281606
:10772200FF0E2916FF0E2A16000E2B16960E315E3C
:1077320031AE0DD03150800A970FD8A0D2D7D89051
:107742002B322A3229322832313EF9D70DD01F0E80
:10775200316407D0C6D7D890283629362A362B3638
:1077620031063150D8A4F7D73050D8B408D02B1EE8
:107772002A1E291E286C000E29222A222B2228C00A
:1077820028F029C029F02AC02AF02BC02BF01200C1
:10779200096E0950D8A404AE1AD001C005F002C087
:1077A20006F003C007F004C008F0051E061E071EFF
:1077B200081E052A000E06220722082205C00BF029
:1077C20006C00CF007C00DF008C00EF008D001C0D2
:1077D2000BF002C00CF003C00DF004C00EF001501B
:1077E200021003100410D8A409D0000E016E000E7E
:1077F200026E000E036E000E046E1200960E0A6EEA
:1078020006D00A2AD8900E320D320C320B32000EFC
:107812000B14056E000E0C14066E000E0D14076E8E
:10782200FE0E0E14086E0550061007100810D8B48C
:107832000DD0E7D70A2A010E0B26000E0C220D22CC
:107842000E22D8900E320D320C320B32000E0B1477
:10785200056E000E0C14066E000E0D14076EFF0E60
:107862000E14086E0550061007100810D8B407D081
:10787200E1D70A06D8900B360C360D360E360DBE01
:1078820003D0020E0A60F5D70AA00D9ED8900A32E4
:107892000AC005F0066A076A086A05C008F0076AA6
:1078A200066A056A05500B1206500C1207500D129B
:1078B20008500E120950D8A404AE01D00E8E0BC08F
:1078C20001F00CC002F00DC003F00EC004F0120073
:1078D2001250800B1B6E12501224216E11BE218099
:1078E2002150D8B40DD02128D8A408D0000E0F6E94
:1078F200000E106E000E116E000E126E118E08D068
:10790200000E0F6E000E106E000E116E000E126E43
:107912001650800B1B1A16501624206E15BE20809E
:107922002050D8B40DD02028D8A408D0000E136E51
:10793200000E146E000E156E000E166E158E08D017
:10794200000E136E000E146E000E156E000E166EF3
:107952002050D8B403D02150D8A409D0000E0F6E05
:10796200000E106E000E116E000E126E12001550F7
:107972000F02F3CF26F0F4CF27F026501C6E1D6ABB
:107982001E6A1F6A2750226E236A246A256A1450CF
:107992001002F3CF26F0F4CF27F026501C26000E5B
:1079A2001D221E221F2227502226000E23222422BD
:1079B200252213501102F3CF26F0F4CF27F02650E0
:1079C2001C26000E1D221E221F2227502226000ED8
:1079D2002322242225221EC01FF01DC01EF01CC01F
:1079E2001DF01C6A13501002F3CF26F0F4CF27F0DB
:1079F20026501C2627501D22000E1E22000E1F227A
:107A020014500F02F3CF26F0F4CF27F026501C2695
:107A120027501D22000E1E22000E1F221EC01FF024
:107A22001DC01EF01CC01DF01C6A13500F02F3CFC4
:107A320026F0F4CF27F026501C2627501D22000ED8
:107A42001E22000E1F2215501002F3CF26F0F4CF93
:107A520027F02650222627502322000E2422000E31
:107A6200252214501102F3CF26F0F4CF27F026502E
:107A7200222627502322000E2422000E25221550F2
:107A82001102F3CF26F0F4CF27F02650176E2750BD
:107A9200186E196A1A6A19C01AF018C019F017C0BC
:107AA20018F0176A17502226185023221950242240
:107AB2001A5025221CC017F01DC018F01EC019F064
:107AC2001FC01AF0190E05D0D8901A321932183286
:107AD2001732E82EF9D717502226185023221950B0
:107AE20024221A5025221EC01FF01DC01EF01CC0E9
:107AF2001DF01C6A205021C017F0186A1726000ECC
:107B02001822820E1724266EFF0E1820276E0FD021
:107B1200D89022362336243625361FBE2280D890AE
:107B22001C361D361E361F362606D8A0270624AE62
:107B3200EFD7000E206E1FAE17D0FF0E1C14176E6B
:107B4200FF0E1D14186EFF0E1E14196E7F0E1F14E9
:107B52001A6E1750181019101A10D8B403D0010E4B
:107B6200206E02D022B0FBD72050D8B41FD0010E15
:107B72002226000E23222422252225A017D022C04D
:107B820017F023C018F024C019F025C01AF01A34D7
:107B92001A3219321832173217C022F018C023F0E5
:107BA20019C024F01AC025F0264A272A27BE0DD074
:107BB200275003E12628D8A008D0000E226E000E1E
:107BC200236E800E246E7F0E20D027BE05D0275054
:107BD2000EE12604D8B00BD0000E226E000E236EEA
:107BE200000E246E000E256E000E1B6E0FD026C0F6
:107BF20021F0FF0E2216FF0E23167F0E2416000E12
:107C0200251621B0248ED8902130256E1B502512C6
:107C120022C00FF023C010F024C011F025C012F0D2
:107C22001200928092969288929A929C949A949C34
:107C3200949E0F0E936E000E956E010EC26E0E0E86
:107C4200C16E1D0EC06E3F0E336E060E346E5B0E9D
:107C5200356E4F0E366E660E376E6D0E386E7D0EB9
:107C6200396E070E3A6E7F0E3B6E6F0E3C6EF90E4A
:107C72003D6E960E416E000E446E04EC3AF0000E1C
:107C8200026E016809EC3AF001C049F002C04AF004
:107C9200640E4924496E000E4A204A6E000E026E9E
:107CA200FE0E016E09EC3AF001C047F002C048F046
:107CB200640E4724476E000E4820486EC282950E1D
:107CC20041643BD029EC3BF004C045F005C046F0CE
:107CD200D00E326ECA0EE82EFED7322EFCD7000E20
:107CE200136E000E146EA00E156E3F0E166E45C07A
:107CF20001F046C002F0000E02BEFF0E036E046EDB
:107D0200010EC9EC3BF001C00FF002C010F003C03D
:107D120011F004C012F069EC3CF00FC028F010C062
:107D220029F011C02AF012C02BF06CEC3BF028C0F5
:107D320045F029C046F0000E416E412A80B807D0B6
:107D4200809C809A808645C04BF046C04CF081B240
:107D520081B02DD080A82BD08096809C808A010E85
:107D6200446E640EC4244B6E4C6A000E4C224B507F
:107D7200475C4850800A326E4C50800A3258D8B064
:107D820006D0FF0E49244B6EFF0E4A204C6E4CBEAD
:107D920006D04C5008E1640E4B5CD8B004D0000E03
:107DA2004C6E640E4B6E4BC049F04CC04AF081A23F
:107DB20081B02DD080A82BD08096809A808C010E25
:107DC200446E640EC4244B6E4C6A000E4C224CBEB0
:107DD2000AD05F0E4B5C010E4C58D8A004D0010EA5
:107DE2004C6E5E0E4B6E49504B5C4C50800A326EAC
:107DF2004A50800A3258D8B006D0010E49244B6E40
:107E0200000E4A204C6E4BC047F04CC048F081B285
:107E120081A023D080A821D08096809C808A4404AF
:107E2200D8A417D09C0E4924496EFF0E4A204A6EF0
:107E3200000E026E016849C003F04AC004F04CEC27
:107E42003AF0640E4924496E000E4A204A6E000E32
:107E5200446E49C04BF04AC04CF081A281A024D0AC
:107E620080A822D08096809A808C4404D8A418D00E
:107E72009C0E4724476EFF0E4820486E000E026E8D
:107E8200FE0E016E47C003F048C004F04CEC3AF01D
:107E9200640E4724476E000E4820486E000E446E62
:107EA20047C04BF048C04CF04BC001F04CC002F050
:107EB200000E046E0A0E036EAFEC3AF001503E6EF5
:107EC2004BC001F04CC002F0000E046E640E036E53
:107ED200AFEC3AF001C042F002C043F042C001F000
:107EE20043C002F0000E046E0A0E036EE7EC3AF095
:107EF20001503F6E4BC042F04CC043F042C001F013
:107F020043C002F0000E046E640E036EE7EC3AF01A
:107F12000150406E800E816E330E3F24D96EDA6AB4
:107F2200000EDA22DF50836E838E0B0E326E620EEB
:107F3200E82EFED7322EFCD700D0400E816E330ED3
:107F42004024D96EDA6A000EDA22DF50836E0B0EFD
:107F5200326E620EE82EFED7322EFCD700D0200EF3
:107F6200816E33C083FF0B0E326E620EE82EFED797
:107F7200322EFCD700D0100E816E330E3E24D96E05
:107F8200DA6A000EDA22DF50836E0B0E326E620E58
:107F9200E82EFED7322EFCD700D04950455C465021
:107FA200800A326E4A50800A3258D8B003D0829A80
:107FB200829C828E4550475C4850800A326E465001
:107FC200800A3258D8B003D0829E829C828A455061
:107FD200495C4A50800A326E4650800A3258D8B004
:107FE2006DD64750455C4650800A326E4850800A32
:0E7FF2003258D8B063D6829A829E828C5FD6B7
:020000040020DA
:08000000FFFFFFFFFFFFFFFF00
:020000040030CA
:0E000000FF071F1FFF8385FF0FC00FE00F409B
:00000001FF
